:020000040800F2
:10000000000001209D0A0008ED0A0008ED0A000822
:10001000ED0A0008ED0A0008ED0A000800000000E3
:10002000000000000000000000000000ED0A0008D1
:10003000ED0A000800000000ED0A0008550A00085B
:10004000ED0A0008ED0A0008ED0A0008ED0A0008B4
:10005000ED0A0008ED0A0008ED0A0008ED0A0008A4
:10006000ED0A0008ED0A0008ED0A0008ED0A000894
:10007000ED0A0008ED0A0008ED0A0008ED0A000884
:10008000ED0A0008ED0A0008ED0A00080000000073
:10009000000000000000000000000000ED0A000861
:1000A000ED0A0008AD040008ED0A0008ED0A00089A
:1000B000ED0A0008ED0A0008ED0A0008ED0A000844
:1000C000ED0A0008ED0A0008ED0A0008ED0A000834
:1000D000ED0A000871070008ED0A000800000000A2
:1000E000ED0A0008ED0A0008ED0A00080000000013
:1000F000000000000000000000000000ED0A000801
:1001000000000000ED0A0008ED0A0008ED0A0008F2
:1001100000000000000000000000000000000000DF
:10012000ED0A0008ED0A0008ED0A0008ED0A0008D3
:10013000ED0A0008000000000000000000000000C0
:10014000000000000000000000000000ED0A0008B0
:10015000ED0A0008ED0A0008ED0A0008ED0A0008A3
:10016000ED0A0008ED0A0008000000000000000091
:10017000000000000000000000000000000000007F
:1001800000000000ED0A0008000000000000000070
:04019000ED0A00086C
:100194000348044B834202D0034B03B11847704712
:1001A4003000002030000020000000000548064B0D
:1001B4001B1AD90F01EBA301491002D0034B03B161
:1001C4001847704730000020300000200000000075
:1001D40010B5064C237843B9FFF7DAFF044B13B18B
:1001E4000448AFF300800123237010BD30000020C9
:1001F400000000000C0B000808B5054B1BB10549B5
:100204000548AFF30080BDE80840FFF7CFBF00BF4B
:1002140000000000340000200C0B000870B50D4BEA
:100224000D4D5B1B9C100026A64209D100F06CFC0E
:100234000A4D0B4B5B1B9C100026A64205D170BDDA
:1002440055F8043B98470136EEE755F8043B9847C8
:100254000136F2E7380B0008380B0008380B0008A9
:100264003C0B000880B400AF184B1B6B174A43F4D7
:1002740080031363164B00221A6000BF144B1B68E3
:1002840003F00103002BF9D1114B124A9A60104B71
:10029400114ADA600E4B40225A600D4B1A680C4921
:1002A4000E4B13400B600A4B1B68094A43F0006372
:1002B40043F4A0631360064B1B68054A43F0010333
:1002C400136000BFBD465DF8047B704700380240F0
:1002D400406402400410014094000020BF80FFF1FC
:1002E40080B400AF1A4B1B6B194A43F0010313632C
:1002F400184B1B68174A23F0F3031360154B1B6854
:10030400144A43F051031360124B5B68114A23F003
:100314000D0353600F4B9B680E4A23F0F303936065
:100324000C4B9B680B4A43F051039360094BDB6809
:10033400084A23F0F303D360064BDB68054A43F015
:100344005103D36000BFBD465DF8047B704700BF16
:10035400003802400000024080B483B000AF03467E
:10036400FB71084B5B69FA79012101FA02F211462B
:10037400044A0B43536100BF0C37BD465DF8047B50
:10038400704700BF0000024080B483B000AF034652
:10039400FB71084B5B69FA79012101FA02F2D2433D
:1003A4001146044A0B40536100BF0C37BD465DF84B
:1003B400047B70470000024080B582B000AF034662
:1003C400FB71FB79032B1AD0032B22DC012B02D007
:1003D400022B0AD01DE00020FFF7D6FF0220FFF712
:1003E400BBFF0320FFF7B8FF1DE00220FFF7CCFF9F
:1003F4000020FFF7B1FF0320FFF7AEFF13E0032057
:10040400FFF7C2FF0220FFF7A7FF0020FFF7A4FFBA
:1004140009E00020FFF7A0FF0220FFF79DFF032063
:10042400FFF79AFF00BF00BF0837BD4680BD00003C
:1004340080B500AF034B1B781846FFF7BDFF00BF24
:1004440080BD00BF4C00002080B400AF134B5B6C38
:10045400124A43F400335364114B47229A62104BFF
:100464004FF47A72DA620E4BDB680D4A43F00103F3
:10047400D3600C4B102283F819230A4B1B68094ADA
:1004840043F000731360064B1B68054A43F00103F5
:10049400136000BFBD465DF8047B7047003802401E
:1004A4000044014000E100E080B400AF0F4B1B6941
:1004B40003F00103002B14D00C4B1B690B4A23F0EF
:1004C400010313610A4B1B8801339AB2084B1A804B
:1004D400084B5B695B08DBB203F00103DAB2064B3D
:1004E4001A7000BFBD465DF8047B704700440140AC
:1004F4004E000020000002405200002080B400AFF3
:10050400414B1B6B404A43F0010313633E4B1B6B8F
:1005140003F00103002B01D1012370E03A4B1B6C63
:10052400394A43F001031364374B1B6C03F0010396
:10053400002B01D1012362E0344B1B68334A23F0C2
:100544000C031360314B1B68304A43F008031360FB
:100554002E4B1B6A2D4A23F0F00313622B4B1B6AAC
:100564002A4A43F010031362284B9B68274A43F03E
:100574000C039360254BDB68244A23F00C03D360FF
:100584004FF0804301229A624FF0804348F69F4225
:10059400DA624FF0804344F24F629A634FF0804333
:1005A4009B694FF0804223F4E04393614FF0804312
:1005B4009B694FF0804243F4C04393614FF0804302
:1005C4009B694FF0804243F4006393614FF0804392
:1005D4001B6A4FF0804243F0100313624FF08043D4
:1005E4001B684FF0804223F0100313604FF08043E8
:1005F4001B684FF0804243F0010313600023184648
:10060400BD465DF8047B704700380240000002409C
:1006140080B483B000AF78607B684EF6602293426A
:1006240002DD4EF660237B607B68002B01DA002339
:100634007B604FF080427B68936300BF0C37BD46FC
:100644005DF8047B7047000080B500AF034B1B8846
:100654001846FFF7DDFF00BF80BD00BF500000203B
:1006640080B400AF264B1B6B254A43F0020313638F
:10067400234B5B6C224A43F010035364214B1B68E9
:10068400204A23F4704313601E4B1B681D4A43F435
:10069400204313601B4B1B6A1A4A23F07F431362E7
:1006A400184B1B6A174A43F0EE431362164B41F68C
:1006B4004C529A60144BDB68134A23F4405323F0E2
:1006C4001C03D360104BDB680F4A43F4005343F020
:1006D4001C03D3600C4B5B690B4A43F0400353612A
:1006E4000A4B5B68094A43F020035360074B01221D
:1006F40083F8252300BFBD465DF8047B704700BF27
:1007040000380240000402400010014000E100E013
:1007140080B483B000AF0346FB7100BF074B1B6876
:1007240003F08003002BF9D0044AFB79536000BF27
:100734000C37BD465DF8047B704700BF00100140D4
:1007440080B582B000AF786006E07B685A1C7A609E
:100754001B781846FFF7DCFF7B681B78002BF4D16D
:1007640000BF00BF0837BD4680BD000080B582B021
:1007740000AF174B1B6803F01003002B24D0144B5D
:100784001B687B60124B5B687B60124B1B68114AD1
:1007940023F0010313600F4B5B68C3F140030E4A5F
:1007A40013600D4B1B681A460C490D4800F09DF967
:1007B4000C4B01221A70074B40225A60054B1B68F0
:1007C400044A43F00103136000BF0837BD4680BDEF
:1007D4000010014040640240D40000209400002036
:1007E40054000020D800002080B582B000AF184B20
:1007F4001B780133DAB2164B1A70154B1B78042B95
:1008040005D91448FFF79CFF114B00221A70124BB4
:100814001B78DBB2002B16D00023FB8008E0FB889A
:100824000E4AD35C1846FFF773FFFB880133FB8045
:10083400FA880B4B1B689A42F1D30A48FFF780FFF2
:10084400054B00221A7000BF0837BD4680BD00BFAB
:10085400D9000020240B0008D800002054000020F8
:10086400D4000020340B000880B400AF034B0422F2
:100874001A7000BFBD465DF8047B7047DA000020A3
:1008840080B400AF054B1B780133DAB2034B1A7006
:1008940000BFBD465DF8047B704700BFDB0000204D
:1008A40080B582B000AF0023FB712EE01C4B1B68A7
:1008B4003B60FA791B4913465B0013449B000B44CD
:1008C40008331B683A68D11AFA79164813465B0054
:1008D40013449B00034404331B88994212D3FA79CE
:1008E400104913465B0013449B000B4408333A68D9
:1008F4001A60FA790B4913465B0013449B000B44BE
:100904001B689847FB790133FB71074B1B78FA7915
:100914009A42CBD300BF00BF0837BD4680BD00BF9D
:10092400DC00002000000020DA00002080B500AFC9
:1009340000F06EF8FFF7D4FCFFF792FEFFF792FC8D
:10094400FFF782FDFFF7DAFDFFF78EFFFFF7A8FF41
:10095400FCE7000080B400AF2A4B1B68294A43F42B
:100964008033136000BF274B1B6803F40033002B54
:10097400F9D0254B1B68244A23F007031360224B4C
:100984001B68214A43F0020313601E4B9B681D4AF7
:1009940023F47C4323F0F00393601A4B9B68194AB9
:1009A40043F480539360174B1B68164A23F08073FB
:1009B4001360144B154A5A60124B1B68114A43F0DA
:1009C4008073136000BF0F4B1B6803F00073002B90
:1009D400F9D00C4B9B680B4A23F003039360094B3B
:1009E4009B68084A43F00203936000BF054B9B6871
:1009F40003F00C03082BF9D100BF00BFBD465DF81E
:100A0400047B704700380240003C0240194841040E
:100A140080B400AF0C4B1B680B4A23F00703136030
:100A2400094B06221A60084B084A5A60064B0022FA
:100A34009A60054B1B68044A43F00103136000BF2E
:100A4400BD465DF8047B704710E000E03F190100EB
:100A540080B400AF0D4B1B6801330C4A13600B4B81
:100A64001A680B4BA3FB02139B094FF47A7101FB29
:100A740003F3D31A002B04D1064B1B680133054A38
:100A8400136000BFBD465DF8047B7047DC000020A6
:100A9400D34D6210E0000020DFF834D0FFF75AFF96
:100AA4000C480D490D4A002302E0D458C4500433C5
:100AB400C4188C42F9D30A4A0A4C002301E013609B
:100AC4000432A242FBD3FFF7A9FBFFF72FFF7047C5
:100AD400000001200000002030000020400B00082E
:100AE40030000020E4000020FEE70A44914200F1B7
:100AF400FF3300D1704710B511F8014B03F8014FD3
:100B04009142F9D110BD0000F8B500BFF8BC08BC93
:100B14009E467047F8B500BFF8BC08BC9E467047B7
:100B240048656C6C6F2C20555341525431210A0096
:040B34000A000000B3
:040B3800FD010008B3
:040B3C00D5010008D7
:100B400085080008E80300000000000035040008E4
:100B50000100000000000000ED0700086400000034
:100B6000000000004D060008140000000000000016
:0400000508000A9D48
:00000001FF
