:020000040800F2
:1000000000000120E9090008390A000881020008FF
:10001000390A0008390A0008390A000800000000FF
:10002000000000000000000000000000390A000885
:10003000390A000800000000C301000899090008FF
:10004000390A0008390A0008390A0008390A000884
:10005000390A0008390A0008390A0008390A000874
:10006000390A0008390A0008390A0008390A000864
:10007000390A0008390A0008390A0008390A000854
:10008000390A0008390A0008390A0008000000008F
:10009000000000000000000000000000390A000815
:1000A000390A0008F1050008390A0008390A000871
:1000B000390A0008390A0008390A0008390A000814
:1000C000390A0008390A0008390A0008390A000804
:1000D000390A000851070008390A0008000000002A
:1000E000390A0008390A0008390A0008000000002F
:1000F000000000000000000000000000390A0008B5
:1001000000000000390A0008390A0008390A00080E
:1001100000000000000000000000000000000000DF
:10012000390A0008390A0008390A0008390A0008A3
:10013000390A000800000000000000000000000074
:10014000000000000000000000000000390A000864
:10015000390A0008390A0008390A0008390A000873
:10016000390A0008390A00080000000000000000F9
:10017000000000000000000000000000000000007F
:1001800000000000390A0008000000000000000024
:04019000390A000820
:10019400EFF3108072B6704780F310887047464AB8
:1001A4001368012B04D04FF001031360434A10601D
:1001B400434A116043484FF0805101607047EFF3A8
:1001C400108272B63C48016851B34FF000010160DF
:1001D4003A48016891B1EFF309811EF0100F08BF8E
:1001E40021ED108B21E9F00F4FF000041EF0100FE9
:1001F40008BF012441F8044D0068016030490968D2
:10020400096808C9B1E8F00F002B18BFB1EC108BD6
:1002140081F309884EF0100E002B18BF2EF0100E3B
:1002240082F310884EF0040E704725490860EFF3FE
:10023400148222F0040282F3148820494FF0000053
:1002440008601D494FF0010008601F481F49D0F89D
:10025400002041EA020101601A484FF08051016018
:100264001B480068006800BF80F3088861B662B666
:10027400BFF34F8FBFF36F8F704700BFEFF308805A
:100284001EF0040F01D0EFF3098020E9F00F40F8CD
:1002940004ED40F804ED1EF0040F02D080F3098849
:1002A40001E080F3088800B500F00EFC5DF804EB73
:1002B4004EF0040E70470000140100200C010020D1
:1002C4001001002004ED00E020ED00E00000FFFF3D
:1002D40008ED00E00348044B834202D0034B03B112
:1002E4001847704758000020580000200000000004
:1002F4000548064B1B1AD90F01EBA301491002D084
:10030400034B03B1184770475800002058000020E1
:100314000000000010B5064C237843B9FFF7DAFF5C
:10032400044B13B10448AFF300800123237010BDC4
:100334005800002000000000D02C000808B5054B30
:100344001BB105490548AFF30080BDE80840FFF73D
:10035400CFBF00BF000000005C000020D02C0008CC
:1003640070B50D4B0D4D5B1B9C100026A64209D1A8
:1003740002F0ACFC0A4D0B4B5B1B9C100026A64202
:1003840005D170BD55F8043B98470136EEE755F8A2
:10039400043B98470136F2E7C82E0008C82E00082F
:1003A400C82E0008CC2E000880B400AF184B1B6B7D
:1003B400174A43F480031363164B00221A6000BFEC
:1003C400144B1B6803F00103002BF9D1114B124AA3
:1003D4009A60104B114ADA600E4B40225A600D4B62
:1003E4001A680C490E4B13400B600A4B1B68094AF0
:1003F40043F0006343F4A0631360064B1B68054A93
:1004040043F00103136000BFBD465DF8047B7047F1
:10041400003802404064024004100140BC00002047
:10042400BF80FFF180B400AF1A4B1B6B194A43F035
:1004340001031363184B1B68174A23F0F30313607B
:10044400154B1B68144A43F051031360124B5B684D
:10045400114A23F00D0353600F4B9B680E4A23F09F
:10046400F30393600C4B9B680B4A43F05103936076
:10047400094BDB68084A23F0F303D360064BDB68BF
:10048400054A43F05103D36000BFBD465DF8047BC9
:10049400704700BF003802400000024080B483B0BF
:1004A40000AF0346FB71084B5B69FA79012101FA3D
:1004B40002F21146044A0B43536100BF0C37BD4698
:1004C4005DF8047B704700BF0000024080B483B035
:1004D40000AF0346FB71084B5B69FA79012101FA0D
:1004E40002F2D2431146044A0B40536100BF0C3759
:1004F400BD465DF8047B70470000024080B582B0C1
:1005040000AF0346FB71FB79032B1AD0032B22DCCB
:10051400012B02D0022B0AD01DE00020FFF7D6FFEA
:100524000220FFF7BBFF0320FFF7B8FF1DE0022006
:10053400FFF7CCFF0020FFF7B1FF0320FFF7AEFF6A
:1005440013E00320FFF7C2FF0220FFF7A7FF0020FC
:10055400FFF7A4FF09E00020FFF7A0FF0220FFF748
:100564009DFF0320FFF79AFF00BF00BF0837BD4679
:1005740080BD000080B582B000AF78600B4B1B7863
:100584001846FFF7BBFF094B1B780133DAB2074B60
:100594001A70064B1B78032B02D9044B00221A70E5
:1005A4004FF4FA7002F078F8E8E700BF7400002016
:1005B40080B584B002AF142301930A2300934FF44F
:1005C400806300220749084802F006F878607B68D7
:1005D400002B02D0786801F0DFFF00BF0837BD466A
:1005E40080BD00BF79050008E82C000880B400AF86
:1005F4000F4B1B6903F00103002B14D00C4B1B6938
:100604000B4A23F0010313610A4B1B8801339AB28E
:10061400084B1A80084B5B695B08DBB203F00103EB
:10062400DAB2064B1A7000BFBD465DF8047B704712
:1006340000440140760000200000024078000020C1
:1006440080B400AF264B1B6B254A43F002031363AF
:10065400234B5B6C224A43F010035364214B1B6809
:10066400204A23F4704313601E4B1B681D4A43F455
:10067400204313601B4B1B6A1A4A23F07F43136207
:10068400184B1B6A174A43F0EE431362164B41F6AC
:100694004C529A60144BDB68134A23F4405323F002
:1006A4001C03D360104BDB680F4A43F4005343F040
:1006B4001C03D3600C4B5B690B4A43F0400353614A
:1006C4000A4B5B68094A43F020035360074B01223D
:1006D40083F8252300BFBD465DF8047B704700BF47
:1006E40000380240000402400010014000E100E034
:1006F40080B483B000AF0346FB7100BF074B1B6897
:1007040003F08003002BF9D0044AFB79536000BF47
:100714000C37BD465DF8047B704700BF00100140F4
:1007240080B582B000AF786006E07B685A1C7A60BE
:100734001B781846FFF7DCFF7B681B78002BF4D18D
:1007440000BF00BF0837BD4680BD000080B582B041
:1007540000AF174B1B6803F01003002B24D0144B7D
:100764001B687B60124B5B687B60124B1B68114AF1
:1007740023F0010313600F4B5B68C3F140030E4A7F
:1007840013600D4B1B681A460C490D4802F08FFA92
:100794000C4B01221A70074B40225A60054B1B6810
:1007A400044A43F00103136000BF0837BD4680BD0F
:1007B4000010014040640240FC000020BC00002006
:1007C4007C0000200001002080B584B000AF786078
:1007D400174B1B780133DAB2154B1A70144B1B7884
:1007E400042B05D91348FFF79BFF114B00221A7005
:1007F400114B1B78DBB2002B16D00023FB8108E0E1
:10080400FB890E4AD35C1846FFF772FFFB8901335C
:10081400FB81FA890A4B1B689A42F1D30948FFF716
:100824007FFF054B00221A70C82001F035FFCFE787
:1008340001010020F42C0008000100207C000020AD
:10084400FC000020042D000880B584B002AF1423FE
:1008540001930A2300934FF4806300220749084858
:1008640001F0BAFE78607B68002B02D0786801F052
:1008740093FE00BF0837BD4680BD00BFCD0700080A
:10088400082D000880B500AFFFF792FEFFF7DCFFEC
:100894000023184680BD000080B400AF2A4B1B68BB
:1008A400294A43F48033136000BF274B1B6803F4C9
:1008B4000033002BF9D0254B1B68244A23F007038F
:1008C4001360224B1B68214A43F0020313601E4B42
:1008D4009B681D4A23F47C4323F0F00393601A4B76
:1008E4009B68194A43F480539360174B1B68164A5C
:1008F40023F080731360144B154A5A60124B1B6823
:10090400114A43F08073136000BF0F4B1B6803F060
:100914000073002BF9D00C4B9B680B4A23F00303A4
:100924009360094B9B68084A43F00203936000BF3D
:10093400054B9B6803F00C03082BF9D100BF00BFE3
:10094400BD465DF8047B704700380240003C02401D
:100954001948410480B400AF0C4B1B680B4A23F0C8
:1009640007031360094B06221A60084B084A5A60B1
:10097400064B00229A60054B1B68044A43F00103AE
:10098400136000BFBD465DF8047B704710E000E0D3
:100994003F19010080B500AF0F4B1B6801330E4AAD
:1009A40013600D4B1A680D4BA3FB02139B094FF404
:1009B4007A7101FB03F3D31A002B04D1084B1B6893
:1009C4000133074A136000F079FA00F0D3F800F01D
:1009D4008BFA00BF80BD00BF04010020D34D62101C
:1009E40008010020DFF834D0FFF756FF0C480D490A
:1009F4000D4A002302E0D458C4500433C4188C4276
:100A0400F9D30A4A0A4C002301E013600432A242DB
:100A1400FBD3FFF7A5FC00F02FF97047000001207D
:100A24000000002058000020D02E000858000020AC
:100A3400BC3F0020FEE7000080B489B000AFF8603E
:100A4400B9607A603B607B680433BB61BB6923F0A7
:100A54000703BB61BB69443BBB61BB697B6100238A
:100A6400FB6108E0FB699B007A691344154A1A602C
:100A7400FB690133FB61FB69102BF3D9BA687B690D
:100A84005A627B6900229A627B690022DA627B697E
:100A940000221A637B6900225A633A687B699A636D
:100AA400FA687B69DA637B694FF080721A647B6948
:100AB40000221A60BB6918462437BD465DF8047BE2
:100AC400704700BFEFBEADDE80B586B000AF786082
:100AD4007B6828337B617B6804333B61084B1B686C
:100AE400002B07D0064B1B6878699847F860FB68B1
:100AF400002B00D0FEE700BF1837BD4680BD00BF05
:100B04001801002080B400AF024B1846BD465DF8C2
:100B1400047B70471C01002080B400AF024B1846D0
:100B2400BD465DF8047B70471C3D002098B500AFBE
:100B3400FFF710FFFFF776FCFFF782FDFFF734FCA9
:100B440000F066F8FFF7DEFF0446FFF7E5FF034613
:100B54001946204600F05EFE00BF98BD80B400AF89
:100B6400034B1B681846BD465DF8047B704700BF05
:100B74001C3D002080B582B000AFFFF709FB786010
:100B8400164B1B680133154A136001F0F9FC3860F9
:100B94003B681B6C5A1E3B681A643B681B6C002B39
:100BA40012D13B68DA6B3B681A643B6893F83430C3
:100BB40043F00803DAB23B6883F834207868FFF71F
:100BC400EBFA01F06DFA02E07868FFF7E5FA01F05C
:100BD400DDFF00BF0837BD4680BD00BF1C3D0020BF
:100BE40080B400AF00231846BD465DF8047B70470F
:100BF40080B400AF00231846BD465DF8047B7047FF
:100C040080B400AF00231846BD465DF8047B7047EE
:100C140080B582B000AF094B7B6005E07B681B6840
:100C240098477B6804337B607B68054A9342F5D31D
:100C340000BF00BF0837BD4680BD00BFBC2E000802
:100C4400C02E000880B582B000AF094B7B6005E080
:100C54007B681B6898477B6804337B607B68054A24
:100C64009342F5D300BF00BF0837BD4680BD00BF27
:100C7400C02E0008C42E000880B500AF00F02AF88A
:100C84000023184680BD80B582B000AF7860FFF7BE
:100C9400D9FFFFF7F7FD00BF0837BD4680BD000050
:100CA40080B584B002AF142301930A2300934FF458
:100CB400807300220549064801F08EFC786078684C
:100CC40001F06AFC00BF0837BD4680BD8B0C0008EC
:100CD400142D000880B500AFFFF75AFAFFF726FF7E
:100CE40000F0A5F901F0C2FF01F098F9FFF7D8FF71
:100CF40001F0D6FF00F0A0F801F0B4F90023184683
:100D040080BD80B483B000AF786039607B681B68B5
:100D14003A685A607B681A683B681A607B683A686C
:100D24001A603B687A685A6000BF0C37BD465DF8AC
:100D3400047B704780B483B000AF78607B681B6825
:100D44007A6852685A607B685B687A6812681A60CD
:100D54007B687A685A607B685A687B681A6000BF4F
:100D64000C37BD465DF8047B7047000080B582B047
:100D740000AF78607B68143319460348FFF7C1FF5E
:100D840000BF0837BD4680BD0000002080B584B098
:100D940000AF0023FB600D4BBB60BB681B68BA68E7
:100DA4009A420ED0BB681B68143BFB60FFF7F0F956
:100DB4007860FB6814331846FFF7BCFF7868FFF7C8
:100DC400EBF9FB6818461037BD4680BD00000020D3
:100DD40080B584B000AFFFF7D9FFF860FB68002B43
:100DE4001ED0FB681B6FBB60F86801F077F8786071
:100DF4007B68012B02D1F86801F005F8BB68002B71
:100E040002D0BB68F86898477B68002BE3D1FB6885
:100E14009B6A184600F03AFDF86801F046F8DAE7F4
:100E240000BF00BF1037BD4680BD80B582B000AFA3
:100E34007860FFF7CDFFFCE780B588B004AF0023EE
:100E4400FB602AE03B1DFA681849184600F0B4FC20
:100E5400FA6813461B019B1ADB00154A9818FB68B5
:100E64001B02144A1344391D202203921F220292AA
:100E74004FF480720192009300230F4A01F060FB4B
:100E8400FA6813461B019B1ADB00094A13441846EF
:100E940001F082FBFB680133FB60FB68002BD1D0BF
:100EA40000BF00BF1037BD4680BD00BF1C2D000829
:100EB400203D0020983D00202F0E000880B582B010
:100EC40000AFFFF765F97860064B1B78DBB201339E
:100ED400DAB2044B1A707868FFF75EF900BF08377E
:100EE400BD4680BD983E002080B582B000AFFFF7BC
:100EF4004FF97860064B1B78DBB2013BDAB2044B46
:100F04001A707868FFF748F900BF0837BD4680BDFE
:100F1400983E002080B489B000AFF860B9607A6070
:100F2400FB68FB61BB68DBB27B617B68032B40D948
:100F3400FB6803F00303002B3BD1FB68BB617B69B7
:100F44001B027A6913433B613B691B043A691343EF
:100F54003B6116E0BB691A1DBA613A691A60BB6944
:100F64001A1DBA613A691A60BB691A1DBA613A69F5
:100F74001A60BB691A1DBA613A691A607B68103B32
:100F84007B607B680F2BE5D807E0BB691A1DBA614B
:100F94003A691A607B68043B7B607B68032BF4D856
:100FA400BB69FB6105E0FB695A1CFA617A69D2B23C
:100FB4001A707B685A1E7A60002BF4D1FB681846BD
:100FC4002437BD465DF8047B704780B487B000AF1A
:100FD400F860B9607A607B68002B21D0FB687B6184
:100FE400BB683B613A69531C3B617B69591C79615D
:100FF40012781A701B78002B0CD104E07B695A1C00
:101004007A6100221A707B68013B7B607B68002B4D
:10101400F4D105E07B68013B7B607B68002BE1D168
:10102400FB6818461C37BD465DF8047B704780B4E6
:1010340000AF00BFBD465DF8047B704780B485B047
:1010440000AF786039603B680A2B17D17B681B6856
:101054001946134BA3FB0123DA0813469B001344E0
:101064005B00CA1AFA607B681B681A460C4BA3FB28
:101074000223DB081A467B681A600AE07B681B6857
:1010840003F00F03FB607B681B681B091A467B682F
:101094001A60FB6818461437BD465DF8047B704738
:1010A400CDCCCCCC80B485B000AF78600023FB609D
:1010B4000EE0FA6813469B0013445B0018467B68F5
:1010C4001B68591C7A6811601B780344303BFB6031
:1010D4007B681B681B78303B092BEAD9FB681846F0
:1010E4001437BD465DF8047B7047000080B58EB0B0
:1010F40000AFF860B9607A603B607B6CBB623B6CAC
:10110400FB62BB6C03F04003002B01D0744B00E086
:10111400744B7B62BB6C03F01003002B03D0BB6CDD
:1011240023F00103BB64BB6C03F00103002B01D06B
:10113400302300E0202387F82330002387F837305A
:10114400BB6C03F00203002B1AD07B68002B06DA79
:101154002D2387F837307B685B427B6010E0BB6CE3
:1011640003F00403002B03D02B2387F8373007E068
:10117400BB6C03F00803002B02D0202387F8373020
:1011840000233B637B68002B19D13B6B5A1C3A63E9
:1011940038333B44302203F8282C13E03B1D3968D4
:1011A4001846FFF74BFF03461A467B6A1A443B6B0B
:1011B400591C3963127838333B4403F8282C7B6874
:1011C400002BEBD13A6B7B6C9A4201DD3B6B7B6469
:1011D400FA6A7B6CD31AFB62BB6C03F01103002B1D
:1011E40019D197F83730002B10D0FB6A002B0DDD96
:1011F400FB6A013BFB6209E0FA68BB689A4202D2CF
:10120400FB6820221A70FB680133FB60FB6A5A1EDC
:10121400FA62002BF0DC97F83730002B0DD0FA6817
:10122400BB689A4203D2FB6897F837201A70FB6AAE
:10123400013BFB62FB680133FB60BB6C03F01003F2
:10124400002B1BD10AE0FA68BB689A4203D2FB6800
:1012540097F823201A70FB680133FB60FB6A5A1E5F
:10126400FA62002BEFDC09E0FA68BB689A4202D20A
:10127400FB6830221A70FB680133FB607B6C5A1EDA
:101284007A643A6B9A42EFDB0DE0FA68BB689A42E3
:1012940006D207F110023B6B13441A78FB681A70EC
:1012A400FB680133FB603B6B5A1E3A63002B0DDD78
:1012B400BB6A002BE9D109E0FA68BB689A4202D202
:1012C400FB6820221A70FB680133FB60FB6A5A1E1C
:1012D400FA62002BF0DCFB6818463837BD4680BD47
:1012E400942E0008A82E000880B592B004AFF860D0
:1012F400B9607A603B60FB68BB62FA68BB68134400
:101304007B627A6AFB689A4280F026824FF0FF3350
:101314007B627A6AFB68D31ABB601DE27B681B7828
:10132400252B0BD0BA6A7B6A9A4203D27B681A785F
:10133400BB6A1A70BB6A0133BB620AE20023BB7743
:101344007B6801337B607B681B782D2B04D1BB7FCA
:1013540043F01003BB77F3E77B681B782B2B04D196
:10136400BB7F43F00403BB77EAE77B681B78202B41
:1013740004D1BB7F43F00803BB77E1E77B681B78AC
:10138400232B04D1BB7F43F02003BB77D8E77B68D2
:101394001B78302B04D1BB7F43F00103BB77CFE72D
:1013A40000BF4FF0FF33BB617B681B78303B092BD8
:1013B40005D83B1D1846FFF775FEB86115E07B683C
:1013C4001B782A2B11D17B6801337B603B681A1D83
:1013D4003A601B68BB61BB69002B06DABB695B42E0
:1013E400BB61BB7F43F01003BB774FF0FF337B61DE
:1013F4007B681B782E2B1ED17B6801337B607B6856
:101404001B78303B092B05D83B1D1846FFF74AFED5
:1014140078610BE07B681B782A2B07D17B6801334A
:101424007B603B681A1D3A601B687B617B69002BFB
:1014340001DA00237B6100237B777B681B78682BB0
:1014440003D07B681B786C2B05D17B681B787B777A
:101454007B6801337B600A23FB777B681B78252B31
:1014640000F00881252BC0F21F81782B00F31C812A
:10147400582BC0F21981583B202B00F2158101A290
:1014840052F823F095160008AD160008AD160008B2
:10149400AD160008AD160008AD160008AD1600081C
:1014A400AD160008AD160008AD160008AD1600080C
:1014B4000D150008A3160008AD160008AD160008A7
:1014C400AD160008AD160008A3160008AD160008F6
:1014D400AD160008AD160008AD160008AD160008DC
:1014E4008F16000841160008AD160008AD16000856
:1014F4007B150008AD160008E9160008AD160008B3
:10150400AD1600089D160008BB7F03F01003002BE6
:1015140010D109E0BA6A7B6A9A4202D2BB6A2022DD
:101524001A70BB6A0133BB62BB69013BBB61BB6917
:10153400002BEFDC3B681A1D3A601B68FB74BA6A27
:101544007B6A9A4202D2BB6AFA7C1A70BB6A013384
:10155400BB6209E0BA6A7B6A9A4202D2BB6A202261
:101564001A70BB6A0133BB62BB69013BBB61BB69D7
:10157400002BEFDCEDE03B681A1D3A601B683B6210
:101584003B6A002B01D1824B3B620023FB6202E0E9
:10159400FB6A0133FB62FA6ABB699A4205D0FB6AB3
:1015A4003A6A13441B78002BF2D17B69002B05DDCA
:1015B400FA6A7B699A4201DD7B69FB62BB7F03F0B7
:1015C4001003002B10D109E0BA6A7B6A9A4202D256
:1015D400BB6A20221A70BB6A0133BB62BB695A1E04
:1015E400BA61FA6A9A42EFDB00233B6310E0BA6AFD
:1015F4007B6A9A4203D23B6A1A78BB6A1A70BB6A46
:101604000133BB623B6A01333B623B6B01333B6397
:101614003A6BFB6A9A42EADB09E0BA6A7B6A9A424D
:1016240002D2BB6A20221A70BB6A0133BB62BB6957
:101634005A1EBA61FA6A9A42EFDB8AE0BB69B3F1D7
:10164400FF3F05D10823BB61BB7F43F00103BB7798
:101654003B681A1D3A601B681A46BB7F02937B697C
:101664000193BB6900931023796AB86AFFF73EFDC2
:10167400B8626EE0BA6A7B6A9A4202D2BB6A2522D9
:101684001A70BB6A0133BB6263E00823FB772AE06C
:10169400BB7F43F04003BB771023FB7723E0BB7F82
:1016A40043F00203BB771DE0BA6A7B6A9A4202D216
:1016B400BB6A25221A70BB6A0133BB627B681B7844
:1016C400002B0BD0BA6A7B6A9A4203D27B681A78E1
:1016D400BB6A1A70BB6A0133BB623AE07B68013BA8
:1016E4007B6036E000BF7B7F6C2B09D13B681A1D01
:1016F4003A601B687B63BB7F03F00203002B1AE094
:101704007B7F682B0ED13B681A1D3A601B689BB225
:101714007B63BB7F03F00203002B0CD07B6B1BB2FB
:101724007B6308E03B681A1D3A601B687B63BB7FE0
:1017340003F00203002B7A6BF97FBB7F02937B6972
:101744000193BB6900930B46796AB86AFFF7CEFC34
:10175400B8627B6801337B607B681B78002B7FF465
:10176400DDADBB68002B0BD0BA6A7B6A9A4203D208
:10177400BB6A00221A7003E07B6A013B00221A70E4
:10178400BA6AFB68D31A18463837BD4680BD00BF15
:101794007C2D000880B584B000AFF860B9607A6031
:1017A4007B68BA684FF0FF31F868FFF79DFD034688
:1017B40018461037BD4680BD0EB480B585B000AF65
:1017C400786007F12003BB60BA68F9697868FFF7AD
:1017D400E1FFF860FB6818461437BD46BDE8804059
:1017E40003B0704780B400AF00BFBD465DF8047B12
:1017F400704780B500AF00F093FD0023184680BD0C
:1018040080B582B000AF786000F0A2FD00BF083759
:10181400BD4680BD80B584B000AF786039607B6818
:10182400033323F00303FB603B6823F00303BB6033
:10183400BA68FB68D31A1A467968064800F0D8F8E3
:101844000346054A1360FFF7CDFF00BF1037BD46BE
:1018540080BD00BF842D00089C3E002080B584B06C
:1018640000AF7860FFF7C5FFF860074B1B68796825
:10187400184600F035F9B860F868FFF7C1FFBB6897
:1018840018461037BD4680BD9C3E002080B584B00C
:1018940000AF78607B68002B09D0FFF7AAFFF860DF
:1018A400786800F0E7F9F868FFF7AAFF00E000BFE6
:1018B4001037BD4680BD000080B483B000AF7860AF
:1018C4007B68002B01D1002326E07B68DBB2002B70
:1018D40005D07B68DBB2134AD35C01331CE07B6820
:1018E40003F47F43002B06D07B681B12DBB20D4A46
:1018F400D35C093310E07B6803F47F03002B06D02C
:101904007B681B14DBB2074AD35C113304E07B68A9
:101914001B0E044AD35C193318460C37BD465DF8D8
:10192400047B7047942D000880B485B000AF7860C4
:1019340039607B689A6A3B685B681344FB603A6869
:10194400FB689A4224D0FB681B6803F00103002B58
:101954001ED17B68DB6AFA689A4219D07B681B6BDC
:10196400FA689A4202D17B683A681A63FB680022DB
:101974001A60FB685A683B685A607B689B6A3A68DD
:10198400D11A7B689A6AFB685B6813440A469A60BA
:101994007B689A6A3B689B681344BB60BA683B687F
:1019A4009A421FD0BB681B6803F00103002B19D1B6
:1019B4007B681B6B3A689A4202D17B68BA681A63E7
:1019C4003B6800221A603B685A68BB685A607B68AF
:1019D4009B6ABA68D11A7B689A6A3B685B6813444D
:1019E4000A469A6000BF1437BD465DF8047B704711
:1019F40080B58AB000AFF860B9607A60BB68033321
:101A040023F003037B627B6A38333B623B6A033314
:101A140023F00303FB61BA687B68134423F00303D8
:101A2400BB61BB69182B53D9BB69183B3A6A9A420C
:101A34004ED8BA69FB69D31A183B7B61382200215E
:101A4400786AFFF767FA7B6AFA680C21184600F097
:101A54009BF97B6A214A5A617B6AFA699A617B6ABB
:101A64007A69DA617B6A7A695A63FA697B6A9A628B
:101A74007B6A9B6A3B617B6A23F001023B691A60C3
:101A84007B6A5B6B03F10C023B695A603B69002281
:101A94009A607B6A9A6A3B695B681A447B6ADA6279
:101AA4007A6A7B6ADB6A42F001021A607B6A5A6BCB
:101AB4007B6ADB6A0C325A607B6A5A6B7B6ADB6A2C
:101AC4000C329A607B6A9A6A7B6A1A637B6A00E0CA
:101AD400002318462837BD4680BD00BF8C2D000862
:101AE40080B489B000AF786039603B68002B01D1C5
:101AF4000023B9E07B68BB613B68033323F0030335
:101B04003B603B680B2B01D80C233B60BB695B6BD0
:101B14003A689A4201D90023A6E0BB691A6BBB69F3
:101B24009B6AD31AFB6196E0BB699A6AFB6913440A
:101B34007B617B691B6803F00103002B40F0858007
:101B44007B695A68FB69D31A0C3B3A689A427CD881
:101B54007B695A68FB69D31AA3F10C023B681833FA
:101B64009A4239D3FA693B6813440C333B61BB692D
:101B74009A6A3B691344FB60BB6923F00102FB686A
:101B84001A607B695A68FB685A60FB68FA699A6054
:101B94007B693A695A60FB685A68BB695B6B0C33B2
:101BA4009A4206D0BB699A6AFB685B6813443A6937
:101BB4009A60BB691A6A3B68134403F10C02BB695F
:101BC4001A62BB695A6ABB691B6A9A421AD2BB6918
:101BD4001A6ABB695A6215E0BB691A6A7B695B6859
:101BE400B969896A7869411A5B1A1A44BB691A622D
:101BF400BB695A6ABB691B6A9A4203D2BB691A6AF7
:101C0400BB695A62BB6943F001027B691A60BB6914
:101C14001B6B7A699A4215D107E0BB699A6ABB6962
:101C24001B6B5B681A44BB691A63BB691B6B1B683B
:101C340003F00103002B05D0BB691A6BBB69DB6A97
:101C44009A42EAD17B690C330EE0BB699A6AFB695C
:101C540013445B68FB61BB695A6B3B68D31AFA692E
:101C64009A427FF661AF002318462437BD465DF8DB
:101C7400047B704780B584B000AF78607B68002B2C
:101C840026D07B680C3BFB60FB681B6823F00103D8
:101C9400BB60BB6823F00102FB681A60BB681B6B66
:101CA400FA689A4202D2BB68FA681A63BB681A6A75
:101CB400BB689B6AF968CB1A1946FB685B68CB1A48
:101CC4001A44BB681A62F968B868FFF72DFE00E091
:101CD40000BF1037BD4680BD80B483B000AF7860CC
:101CE40039607B681B683A685A607B681A683B688D
:101CF4001A607B683A681A603B687A685A6000BF69
:101D04000C37BD465DF8047B704780B483B000AFE8
:101D140078607B681B687A6852685A607B685B6885
:101D24007A6812681A607B687A685A607B685A68B5
:101D34007B681A6000BF0C37BD465DF8047B7047B2
:101D440080B485B000AF0346FB710023FB600FE055
:101D54000C4AFB681B0113441B78FA799A4204D19C
:101D6400FB681B01074A134406E0FB680133FB6070
:101D7400FB68042BECDD002318461437BD465DF8E0
:101D8400047B70470800002080B588B000AFF8607D
:101D94000B467A60FB720023FB61FB7A1846FFF75F
:101DA400CFFFB86100F0BCFABB695B68FB6105E07A
:101DB400FB690C3B3B61FB691B68FB61BB6904333A
:101DC400FA699A42F4D100F0C3FAFB7A63F07F0314
:101DD400DAB2FB681A72FB68082279681846FFF7C2
:101DE400F4F8FEF7D5F97861BB691A1DFB680C336A
:101DF40019461046FFF770FF7869FEF7CDF900BF6A
:101E04002037BD4680BD80B584B000AF78607B6864
:101E140000221A72FEF7BCF9F8607B680C3318468E
:101E2400FFF773FFF868FEF7B7F900BF1037BD4638
:101E340080BD80B586B000AF03463960FB71FB7985
:101E44001846FFF77DFF78617B69DB681846FFF76A
:101E540005FD38613B69002B01D1002321E07B693A
:101E6400DB681A4600213869FFF754F83B69FA79B0
:101E74001A723B6900225A723B6908223968184673
:101E8400FFF7A3F8FEF784F9F8607B691A1D3B6934
:101E94000C3319461046FFF71FFFF868FEF77CF96C
:101EA4003B6918461837BD4680BD80B584B000AF85
:101EB40078607B6800221A72FEF76AF9F8607B6822
:101EC4000C331846FFF721FFF868FEF765F97868C8
:101ED400FFF7DCFC00BF1037BD4680BD80B483B083
:101EE40000AF78607B681B7A5BB2002B01DA0123B8
:101EF40000E0002318460C37BD465DF8047B7047AC
:101F040080B483B000AF78607B687A685A607B687D
:101F14005A687B681A6000BF0C37BD465DF8047BC5
:101F2400704780B483B000AF786039607B681B6809
:101F34003A685A607B681A683B681A607B683A683A
:101F44001A603B687A685A6000BF0C37BD465DF87A
:101F5400047B704780B483B000AF786039607B68DD
:101F64005B683A681A607B685A683B685A607B68A9
:101F74003A685A603B687A681A6000BF0C37BD46FD
:101F84005DF8047B704780B483B000AF78607B68F1
:101F94001B687A6852685A607B685B687A68126862
:101FA4001A607B687A685A607B685A687B681A6032
:101FB40000BF0C37BD465DF8047B704780B483B026
:101FC40000AF78607B681B687A689A420CBF012373
:101FD4000023DBB218460C37BD465DF8047B70471E
:101FE40080B584B000AF78600A4B1B681846FFF7D1
:101FF40063FC0346013BFB60074AFB6852F833303D
:10200400143BBB607B68FA681A60BB6818461037DB
:10201400BD4680BDA03F0020A03E002080B582B018
:1020240000AF0D4B00221A8000237B6009E07B681F
:10203400DB000A4A13441846FFF762FF7B6801334A
:102044007B607B681F2BF2DD054B00221A6000BF0A
:102054000837BD4680BD00BFA43F0020A03E00203D
:10206400A03F002080B582B000AF3B461846FFF782
:10207400B7FF7860094A7B681360786800F024F938
:102084007B68032283F834207B681C331846FEF7F0
:10209400CCF800BF0837BD4680BD00BFA83F002074
:1020A40080B586B000AFFEF773F8F860524BB3F911
:1020B4000030002B40F09880504B1B68002B00F040
:1020C400938000233B613B1D1846FFF789FF78612D
:1020D4004B4B1B6893F8343003F00703032B2CD1CC
:1020E400474B1B6893F835301A467B689A4203D2F3
:1020F400434B1B687B6115E0414B1B6893F83530FB
:102104001A467B689A420BD13D4B1B6893F83430D6
:1021140003F00803002B03D1394B1B687B6101E0FA
:1021240001233B61364B1B6893F83420344B1B6806
:1021340022F00802D2B283F83420314B1B687A694A
:102144009A423CD07B68DAB22E4B1A702C4B1B6837
:10215400BB602B4A7B6913603B69002B02D0B868D3
:1021640000F054F8786900F0AFF87B6993F83430E4
:102174005BB223F007035BB243F003035BB2DAB252
:102184007B6983F83420204B1B78DBB2002B0CD105
:10219400BB681C331A467B691C3319461046FDF78D
:1021A400FEFFF868FDF7F8FF22E0BB681C331A460F
:1021B4007B691C3319461046FDF7F1FF14E0104B00
:1021C4001B68184600F080F80D4B1B6893F83430F8
:1021D4005BB223F007035BB243F003035AB2084B2C
:1021E4001B68D2B283F83420F868FDF7D5FF00BF2E
:1021F4001837BD4680BD00BFA43F0020A03F00208B
:10220400A83F0020AC3F0020983E002080B584B059
:1022140000AF7860FDF7BCFFF860284B1B687A6854
:102224009A420ED17B6893F834305BB223F00703F3
:102234005BB243F003035BB2DAB27B6883F8342009
:1022440034E07B6893F834305BB223F007035BB26D
:1022540043F001035BB2DAB27B6883F834207B6815
:1022640093F8343003F00803002B0CD07B6893F808
:102274003530DB00124A1A447B6814331946104681
:10228400FFF768FE0BE07B6893F83530DB000C4AFF
:102294001A447B68143319461046FFF742FE7B68E4
:1022A4009A6B084B1B681343064A1360F868FDF7E2
:1022B40073FF00BF1037BD4680BD00BFA83F00209C
:1022C400A03E0020A03F002080B584B000AF78601D
:1022D400FDF75EFFF8607B6814331846FFF753FE82
:1022E4007B6893F83530DB000B4A13441846FFF73C
:1022F40065FE0346002B07D07B689B6BDA43074BD4
:102304001B681340054A1360F868FDF745FF00BFDA
:102314001037BD4680BD00BFA03E0020A03F002076
:1023240080B582B000AFFDF733FF7860074BB3F997
:1023340000309BB201339BB21AB2044B1A80786806
:10234400FDF72AFF00BF0837BD4680BDA43F00202B
:1023540080B582B000AFFDF71BFF7860104BB3F976
:1023640000309BB2013B9BB21AB20D4B1A800C4B4E
:10237400B3F90030002B0CDC094B00221A8078687A
:10238400FDF70AFF074B1B68002B05D0FFF788FEFB
:1023940002E07868FDF700FF00BF0837BD4680BD46
:1023A400A43F0020A83F002080B483B000AF786031
:1023B4007B687A685A607B685A687B681A6000BFD9
:1023C4000C37BD465DF8047B704780B483B000AF22
:1023D40078607B681B687A6852685A607B685B68BF
:1023E4007A6812681A607B687A685A607B685A68EF
:1023F4007B681A6000BF0C37BD465DF8047B7047EC
:1024040080B582B000AF00F0BBF87860FDF7C0FE85
:1024140038607868FFF758FF7B684433184600F04B
:1024240061FA7B68042283F834207868FEF79EFC06
:102434003868FDF7B1FEFFF733FE00BF0837BD462D
:1024440080BD80B584B000AF78607B68FB60FDF729
:102454009FFEB860FB686FF001021A63FB681433D7
:102464001846FFF7B2FFF868FFF7D0FEB868FDF72B
:1024740093FEFFF715FE00BF1037BD4680BD000078
:1024840080B586B002AFF860B9607A603B60FB68E3
:1024940014331846FFF788FFFB687A681A62FB68F2
:1024A4003A685A62FB68BA699A62FB68FA69DA6246
:1024B400FB68986AFB68DB6A1A462321FEF72AFD4B
:1024C400FB68186AFB68596AFB689A6AFB68DB6AEE
:1024D400043B1A44184BFEF7AFFA0246FB68DA6174
:1024E400FB6897F8202083F83520FB6800229A6364
:1024F400FB687A6ADA63FB687A6A1A64FB6800220A
:102504001A63FB68002283F83420FB6800221A67F0
:10251400FB6800225A67FB6803F14400F968002352
:10252400019300230093FB68044A00F0C2F90023DE
:1025340018461037BD4680BD05240008472400080E
:1025440080B588B004AFF860B9607A603B60BA685F
:102554000121F868FFF718FC7B6A039397F8203091
:102564000293FB690193BB6900933B687A68B9687D
:10257400F868FFF785FF034618461037BD4680BD4F
:1025840080B400AF034B1B681846BD465DF8047B5E
:10259400704700BFA83F002080B582B000AF7860CC
:1025A4007B6893F835301A46012393401A467B68BA
:1025B4009A637B68022283F83420786800F0ACF8D0
:1025C400FFF7DEFF0346002B01D0FFF769FD002370
:1025D40018460837BD4680BD80B58AB004AFF860A0
:1025E400B9607A603B60F9680120FFF722FC7861EA
:1025F4007B69002B01D100231BE03868FFF72EF91B
:1026040038613B69002B04D17869FFF74EFC002345
:102614000FE07B6A039397F8203002933B680193A1
:102624003B6900937B68BA68F9687869FFF728FF0B
:102634007B6918461837BD4680BD80B584B000AFAD
:102644007860FFF79DFFF860FDF7A2FDB860FB68B6
:1026540000221A63F86800F02BF8FB6844333A1D33
:102664000021184600F040FAFB684433184600F095
:1026740057F9B868FDF790FDFFF712FDFB681B6B77
:1026840013F1020F02D1FB6800221A63FB681B6B73
:1026940018461037BD4680BD80B582B000AF786063
:1026A4007868FFF7CAFF034618460837BD4680BD61
:1026B40080B584B000AF78607B6893F8343003F061
:1026C4000703FB60FB68012B05D0FB68032B02D0DA
:1026D4004FF0FF331CE0FDF75BFDB8607868FFF74F
:1026E400F3FD7B6893F834305BB223F007035BB2ED
:1026F40043F002035BB2DAB27B6883F834207B6870
:102704004433184600F0CEF9B868FDF745FD0023C0
:1027140018461037BD4680BD80B584B000AF7860E0
:102724007B6893F8343003F00703022B02D04FF098
:10273400FF3313E0FDF72CFDF8607B681433184673
:10274400FFF743FE7B684433184600F0ABF9786822
:10275400FFF75CFDF868FDF71FFD002318461037EE
:10276400BD4680BD80B483B000AF78607B687A6872
:102774005A607B685A687B681A6000BF0C37BD4694
:102784005DF8047B704780B483B000AF7860396033
:102794007B681B683A685A607B681A683B681A60F1
:1027A4007B683A681A603B687A685A6000BF0C37E5
:1027B400BD465DF8047B704780B483B000AF786099
:1027C4007B681B687A6852685A607B685B687A68C1
:1027D40012681A607B687A685A607B685A687B68FA
:1027E4001A6000BF0C37BD465DF8047B704780B4A7
:1027F40083B000AF78607B681B687A689A420CBF2C
:1028040001230023DBB218460C37BD465DF8047B78
:10281400704780B586B000AFF860B9607A603B60FD
:10282400FB6897F820205A72FB685B7A23F0010357
:10283400DAB2FB685A72FB68BA68DA61FB687A68D4
:102844001A62FB6800229A62FB683A685A620023A3
:102854007B610BE07B690233DB00FA6813440433C9
:102864001846FFF77FFF7B6901337B617B69002B8F
:10287400F0DD00BF00BF1837BD4680BD80B584B011
:1028840000AF78600023FB600BE0FB680233DB00E1
:102894007A68134404331846FFF78EFFFB6801334C
:1028A400FB60FB68002BF0DD00BF00BF1037BD46A6
:1028B40080BD80B586B002AFF860B9607A603B60D5
:1028C400FB68BA680A211846FFF75EFA3B7F00935B
:1028D400BB693A687968F868FFF79BFF00BF103757
:1028E400BD4680BD80B584B000AF7860FDF750FC74
:1028F400F8607868FFF7C2FF7B685B7A23F0010316
:10290400DAB27B685A72F868FDF746FC7B681846B1
:10291400FFF779FA002318461037BD4680BD000042
:1029240080B58AB000AF78600023FB61FDF730FC0E
:10293400B8617868FFF7A2FF7B685B7A23F0010334
:10294400DAB27B685A72FEF709F902467B685B6A61
:102954001A447B689A62514B7B617B69BB6000239C
:102964007B624FE07B6A9B0028333B4453F8203C56
:102974001B683B617B6ADB0014335B423A69134496
:10298400FB60FB689A6A7B689B6A9A4209D0FB6881
:102994009A6A7B689B6AD31A6FF0004293421CD3F5
:1029A40000E000BF7B6A9B0028333B4453F8203C83
:1029B4001A687B6A9B0028333B4443F8202C7B6ACB
:1029C4009B0028333B4453F8202C7B6ADB00796955
:1029D4000B445B689A42C5D100E000BF7B6A002BC0
:1029E4000DD07B6A9B0028333B4453F8202C7B6A30
:1029F400013308329B0028333B4443F8202C7B6A84
:102A040001337B627B6A002BD9D0254B1B680133D1
:102A1400234A1360224B1B683B62BA687B681433F9
:102A240019461046FFF7AFFE02237B621DE03B6AA6
:102A340003F00303002B1CD17B6AC3F101039B0049
:102A440028333B4453F8200C7B6AC3F1010302335F
:102A5400DB007A68134404331946FFF794FE3B6A9B
:102A64009B083B627B6A01337B627B6A012BDED964
:102A740000E000BF7B685B7A43F00103DAB27B6855
:102A84005A72B869FDF788FBFB69002B01D0FFF788
:102A940007FB002318462837BD4680BDB03F002001
:102AA400B83F002080B584B000AF78607B685B7A63
:102AB40003F00103002B02D14FF0FF3310E0FDF7C8
:102AC40067FBF8607868FFF7D9FE7B685B7A23F0D0
:102AD4000103DAB27B685A72F868FDF75DFB0023E4
:102AE40018461037BD4680BD80B586B000AFF8608B
:102AF400B9607A60FDF74CFB7861BB68052B3CD864
:102B040001A252F823F000BF2F2B0008252B000848
:102B1400392B0008492B0008592B0008752B000895
:102B2400FB685A6A7B681A6028E07B681A68FB684D
:102B34005A6223E0FB685B7A23F00203DAB2FB6893
:102B44005A721BE0FB685B7A43F00203DAB2FB685B
:102B54005A7213E0FB685B7A03F00103002B03D085
:102B64007B6801221A6009E07B6800221A6005E094
:102B7400FB689A6A7B681A6000E000BF7869FDF719
:102B84000BFB002318461837BD4680BD80B586B0C0
:102B940000AF3B1D1846FFF7E5FDFDF7DFFF786149
:102BA400FDF7F6FA38614FE02F4B1B68143BFB60CE
:102BB400FB689B6A7A69D31A6FF0004293424AD247
:102BC400F868FFF75BFEFB685B7A03F00203002BF7
:102BD40006D1FB685B7A23F00103DAB2FB685A7210
:102BE400FB6803F114023B1D11461846FFF7CBFDA9
:102BF400FB68DB69FA68126A10469847FDF7AEFF76
:102C040078613B1D1846FFF7F2FD0346002B00D008
:102C14001AE0FB6814331846FFF7CEFDFB685B7AB5
:102C240003F00203002B0FD0FB685B7A03F001036F
:102C3400002B09D0FB685B7A23F00103DAB2FB684E
:102C44005A72F868FFF76CFE0748FFF7D0FD034699
:102C5400002BA9D000E000BF3869FDF79DFA00BF42
:102C64001837BD4680BD00BFB03F002080B582B09C
:102C740000AF00237B6009E07B68DB00074A134454
:102C84001846FFF76FFD7B6801337B607B68002B80
:102C9400F2D000BF00BF0837BD4680BDB03F002062
:102CA40080B400AF00BFBD465DF8047B70470A44A2
:102CB400914200F1FF3300D1704710B511F8014B78
:102CC40003F8014F9142F9D110BD0000F8B500BFDF
:102CD400F8BC08BC9E467047F8B500BFF8BC08BCF9
:042CE4009E46704751
:102CE8006C65645F7461736B0000000048656C6C10
:102CF8006F2C20555341525431210A000A0000001C
:102D080075736172745F7461736B00006D61696ED5
:102D1800000000007469646C652564004F4B000076
:102D28004552524F520000004554494D4F555400EA
:102D380045525346554C4C00455253455054590042
:102D4800454E4F4D454D0000454E4F5359530000D9
:102D5800454255535900000045494F0045494E54D6
:102D68005250540045494E56414C000045554E4B73
:102D78004E4F5700284E554C4C290000686561702D
:102D880000000000736D616C6C0000000000010021
:102D9800020001000300010002000100040001001C
:102DA800020001000300010002000100050001000B
:102DB80002000100030001000200010004000100FC
:102DC80002000100030001000200010006000100EA
:102DD80002000100030001000200010004000100DC
:102DE80002000100030001000200010005000100CB
:102DF80002000100030001000200010004000100BC
:102E080002000100030001000200010007000100A8
:102E1800020001000300010002000100040001009B
:102E2800020001000300010002000100050001008A
:102E3800020001000300010002000100040001007B
:102E48000200010003000100020001000600010069
:102E5800020001000300010002000100040001005B
:102E6800020001000300010002000100050001004A
:102E7800020001000300010002000100040001003B
:102E8800020001000300010002000100303132336A
:102E9800343536373839414243444546000000004E
:102EA80030313233343536373839616263646566B8
:042EB8000000000016
:042EBC00E50B00081A
:042EC000F50B000806
:042EC400050C0008F1
:042EC80041030008BA
:042ECC0019030008DE
:102ED0000000002000000020010000000C00002085
:102EE0000C00002078000000020000001C00002000
:102EF0001C00002020000000050000002C00002025
:102F00002C000020300000000A0000003C000020DF
:102F10003C0000202C0000000C0000004C000020B1
:082F20004C0000202800000015
:04000005080009E9FD
:00000001FF
