:020000040800F2
:1000000000000120C50700081508000815080008B1
:100010001508000815080008150800080000000071
:1000200000000000000000000000000015080008AB
:100030001508000800000000150800087D070008EA
:10004000150800081508000815080008150800081C
:10005000150800081508000815080008150800080C
:1000600015080008150800081508000815080008FC
:1000700015080008150800081508000815080008EC
:100080001508000815080008150800080000000001
:10009000000000000000000000000000150800083B
:1000A00015080008150800081508000815080008BC
:1000B00015080008150800081508000815080008AC
:1000C000150800081508000815080008150800089C
:1000D00015080008C1040008150800080000000009
:1000E00015080008150800081508000800000000A1
:1000F00000000000000000000000000015080008DB
:100100000000000015080008150800081508000880
:1001100000000000000000000000000000000000DF
:10012000150800081508000815080008150800083B
:10013000150800080000000000000000000000009A
:10014000000000000000000000000000150800088A
:10015000150800081508000815080008150800080B
:100160001508000815080008000000000000000045
:10017000000000000000000000000000000000007F
:10018000000000001508000800000000000000004A
:040190001508000846
:100194000348044B834202D0034B03B11847704712
:1001A4002400002024000020000000000548064B25
:1001B4001B1AD90F01EBA301491002D0034B03B161
:1001C400184770472400002024000020000000008D
:1001D40010B5064C237843B9FFF7DAFF044B13B18B
:1001E4000448AFF300800123237010BD24000020D5
:1001F400000000001808000808B5054B1BB10549AC
:100204000548AFF30080BDE80840FFF7CFBF00BF4B
:1002140000000000280000201808000870B50D4BED
:100224000D4D5B1B9C100026A64209D100F0F2FA8A
:100234000A4D0B4B5B1B9C100026A64205D170BDDA
:1002440055F8043B98470136EEE755F8043B9847C8
:100254000136F2E74008000840080008400800089A
:100264004408000880B400AF1A4B1B6B194A43F0D2
:1002740001031363184B1B68174A23F0F30313603D
:10028400154B1B68144A43F051031360124B5B680F
:10029400114A23F00D0353600F4B9B680E4A23F061
:1002A400F30393600C4B9B680B4A43F05103936038
:1002B400094BDB68084A23F0F303D360064BDB6881
:1002C400054A43F05103D36000BFBD465DF8047B8B
:1002D400704700BF003802400000024080B483B081
:1002E40000AF0346FB71084B5B69FA79012101FAFF
:1002F40002F21146044A0B43536100BF0C37BD465A
:100304005DF8047B704700BF0000024080B483B0F6
:1003140000AF0346FB71084B5B69FA79012101FACE
:1003240002F2D2431146044A0B40536100BF0C371A
:10033400BD465DF8047B70470000024080B582B082
:1003440000AF0346FB71FB79032B1AD0032B22DC8D
:10035400012B02D0022B0AD01DE00020FFF7D6FFAC
:100364000220FFF7BBFF0320FFF7B8FF1DE00220C8
:10037400FFF7CCFF0020FFF7B1FF0320FFF7AEFF2C
:1003840013E00320FFF7C2FF0220FFF7A7FF0020BE
:10039400FFF7A4FF09E00020FFF7A0FF0220FFF70A
:1003A4009DFF0320FFF79AFF00BF00BF0837BD463B
:1003B40080BD000080B500AF034B1B781846FFF7E3
:1003C400BDFF00BF80BD00BF4000002080B400AF6F
:1003D4001F4B1B6B1E4A43F0020313631C4B5B6CE5
:1003E4001B4A43F0100353641A4B1B68194A23F445
:1003F40070431360174B1B68164A43F42043136081
:10040400144B1B6A134A23F07F431362114B1B6A7C
:10041400104A43F0EE4313620F4B41F64C529A607C
:100424000D4BDB680C4A43F4005343F02C03D360B8
:100434000A4B5B68094A43F020035360074B0122CF
:1004440083F8252300BFBD465DF8047B704700BFD9
:1004540000380240000402400010014000E100E0C6
:1004640080B483B000AF0346FB7100BF074B1B6829
:1004740003F08003002BF9D0044AFB79536000BFDA
:100484000C37BD465DF8047B704700BF0010014087
:1004940080B582B000AF786006E07B685A1C7A6051
:1004A4001B781846FFF7DCFF7B681B78002BF4D120
:1004B40000BF00BF0837BD4680BD000080B483B0D4
:1004C40000AF124B1B6803F02003002B18D0104B15
:1004D4001B68104A13600D4B5B68FB710E4B1B7855
:1004E4003F2B0AD80C4B1B785A1CD1B20A4A117004
:1004F40019460A4AFB79535402E0074B00221A704A
:1005040000BF0C37BD465DF8047B70470010014006
:100514009000002088000020840000204400002077
:1005240080B582B000AF0023BB71BB790133BB71CE
:10053400BB79042B04D91448FFF7AAFF0023BB712D
:10054400124B1B78002B1BD0114B1A68114B1B68E4
:10055400D31A632B15D90023FB7108E0FB790E4AEB
:10056400D35C1846FFF77CFFFB790133FB71074B23
:100574001B78FA799A42F1D3044B00221A7000E0F6
:1005840000BF0837BD4680BD300800088400002045
:1005940090000020880000204400002080B400AFB8
:1005A400034B03221A7000BFBD465DF8047B7047FD
:1005B4008C00002080B400AF054B1B780133DAB205
:1005C400034B1A7000BFBD465DF8047B704700BF43
:1005D4008D00002080B582B000AF0023FB712EE0B7
:1005E4001C4B1B683B60FA791B4913465B001344A0
:1005F4009B000B4408331B683A68D11AFA791648F1
:1006040013465B0013449B00034404331B88994244
:1006140012D3FA79104913465B0013449B000B4430
:1006240008333A681A60FA790B4913465B0013449D
:100634009B000B441B689847FB790133FB71074B04
:100644001B78FA799A42CBD300BF00BF0837BD4666
:1006540080BD00BF90000020000000208C0000201E
:1006640080B500AF00F068F8FFF7FCFDFFF7AEFEC1
:10067400FFF794FFFFF7AEFFFCE7000080B400AF84
:100684002A4B1B68294A43F48033136000BF274B6D
:100694001B6803F40033002BF9D0254B1B68244A54
:1006A40023F007031360224B1B68214A43F0020323
:1006B40013601E4B9B681D4A23F47C4323F0F00314
:1006C40093601A4B9B68194A43F480539360174B09
:1006D4001B68164A23F080731360144B154A5A6042
:1006E400124B1B68114A43F08073136000BF0F4B19
:1006F4001B6803F00073002BF9D00C4B9B680B4A6A
:1007040023F003039360094B9B68084A43F00203F8
:10071400936000BF054B9B6803F00C03082BF9D1D1
:1007240000BF00BFBD465DF8047B7047003802403F
:10073400003C02401948410480B400AF0C4B1B68D4
:100744000B4A23F007031360094B06221A60084B77
:10075400084A5A60064B00229A60054B1B68044AFB
:1007640043F00103136000BFBD465DF8047B70478E
:1007740010E000E03F19010080B400AF0D4B1B688E
:1007840001330C4A13600B4B1A680B4BA3FB021387
:100794009B094FF47A7101FB03F3D31A002B04D1A4
:1007A400064B1B680133054A136000BFBD465DF864
:1007B400047B704790000020D34D62109400002009
:1007C400DFF834D0FFF75AFF0C480D490D4A0023D7
:1007D40002E0D458C4500433C4188C42F9D30A4AF2
:1007E4000A4C002301E013600432A242FBD3FFF75A
:1007F40015FDFFF735FF70470000012000000020C1
:10080400240000204808000824000020980000204C
:10081400FEE70000F8B500BFF8BC08BC9E46704770
:0C082400F8B500BFF8BC08BC9E46704749
:1008300048656C6C6F2C20555341525431210A008D
:04084000FD010008AE
:04084400D5010008D2
:10084800B9050008E803000000000000B90300082B
:1008580001000000000000002505000864000000F9
:04086800000000008C
:04000005080007C523
:00000001FF
