:020000040800F2
:1000000000000120F503000845040008450400082D
:1000100045040008450400084504000800000000ED
:10002000000000000000000000000000450400087F
:1000300045040008000000004504000845040008CD
:10004000450400084504000845040008450400086C
:10005000450400084504000845040008450400085C
:10006000450400084504000845040008450400084C
:10007000450400084504000845040008450400083C
:10008000450400084504000845040008000000007D
:10009000000000000000000000000000450400080F
:1000A000450400084504000845040008450400080C
:1000B00045040008450400084504000845040008FC
:1000C00045040008450400084504000845040008EC
:1000D000450400084504000845040008000000002D
:1000E000450400084504000845040008000000001D
:1000F00000000000000000000000000045040008AF
:1001000000000000450400084504000845040008FC
:1001100000000000000000000000000000000000DF
:10012000450400084504000845040008450400088B
:10013000450400080000000000000000000000006E
:10014000000000000000000000000000450400085E
:10015000450400084504000845040008450400085B
:1001600045040008450400080000000000000000ED
:10017000000000000000000000000000000000007F
:10018000000000004504000800000000000000001E
:04019000450400081A
:100194000348044B834202D0034B03B11847704712
:1001A4000000002000000020000000000548064B6D
:1001B4001B1AD90F01EBA301491002D0034B03B161
:1001C40018477047000000200000002000000000D5
:1001D40010B5064C237843B9FFF7DAFF044B13B18B
:1001E4000448AFF300800123237010BD00000020F9
:1001F400000000004804000808B5054B1BB1054980
:100204000548AFF30080BDE80840FFF7CFBF00BF4B
:1002140000000000040000204804000870B50D4BE5
:100224000D4D5B1B9C100026A64209D100F00AF973
:100234000A4D0B4B5B1B9C100026A64205D170BDDA
:1002440055F8043B98470136EEE755F8043B9847C8
:100254000136F2E760040008600400086004000846
:100264006404000880B400AF1A4B1B6B194A43F0B6
:1002740001031363184B1B68174A23F0F30313603D
:10028400154B1B68144A43F051031360124B5B680F
:10029400114A23F00D0353600F4B9B680E4A23F061
:1002A400F30393600C4B9B680B4A43F05103936038
:1002B400094BDB68084A23F0F303D360064BDB6881
:1002C400054A43F05103D36000BFBD465DF8047B8B
:1002D400704700BF003802400000024080B483B081
:1002E40000AF0346FB71084B5B69FA79012101FAFF
:1002F40002F21146044A0B43536100BF0C37BD465A
:100304005DF8047B704700BF0000024080B483B0F6
:1003140000AF0346FB71084B5B69FA79012101FACE
:1003240002F2D2431146044A0B40536100BF0C371A
:10033400BD465DF8047B70470000024080B500AF05
:10034400FFF790FF0020FFF7C9FF0120FFF7C6FF6A
:100354000320FFF7C3FF204B1B780133DAB21E4B97
:100364001A701D4B1B780A2B02D91B4B00221A70E2
:100374001A4B1B78032B1AD0032B22DC012B02D03F
:10038400022B0AD01DE00020FFF7C0FF0220FFF778
:10039400A5FF0320FFF7A2FF1DE00220FFF7B6FF31
:1003A4000020FFF79BFF0320FFF798FF13E00320D3
:1003B400FFF7ACFF0220FFF791FF0020FFF78EFF4D
:1003C40009E00020FFF78AFF0220FFF787FF0320E0
:1003D400FFF784FF00BFBEE71D0000201C000020C3
:1003E40080B400AF00BFBD465DF8047B70470000D9
:1003F400DFF834D0FFF7F4FF0C480D490D4A002311
:1004040002E0D458C4500433C4188C42F9D30A4AC5
:100414000A4C002301E013600432A242FBD3FFF72D
:10042400FDFEFFF78BFF7047000001200000002055
:1004340000000020680400080000002020000020C4
:10044400FEE70000F8B500BFF8BC08BC9E46704744
:0C045400F8B500BFF8BC08BC9E4670471D
:04046000FD01000892
:04046400D5010008B6
:04000005080003F5F7
:00000001FF
